:1000000062C0FAC27BC0FBC079C078C077C076C03E
:1000100075C074C073C072C071C070C002C16EC0C0
:100020006DC06CC06BC01201100100000008C0164A
:10003000E40501000102000109026500020100005F
:100040003209040000000101000009240100010937
:10005000000101090401000201030000072401005E
:1000600001410006240201010006240202020009E7
:100070002403010301020100092403020401010118
:10008000000905010308000A000005250101010916
:1000900005810308000A0000052501010304030986
:1000A0000412036F0062006400650076002E006198
:1000B0000074001203540065006D0070006C006154
:1000C00000740065000011241FBECFE5D4E0DEBF40
:1000D000CDBF10E0A0E6B0E0E8EAF8E002C005908D
:1000E0000D92A436B107D9F710E0A4E6B0E001C044
:1000F0001D92AB3AB107E1F7AED0D4C381CFFC017A
:100100008381813041F486E290E090939000809367
:100110008F0082E1089588E390E0909390008093AF
:100120008F0085E608958FEF0895282F8091650050
:100130008F5F8093650081508230F8F48091640075
:10014000E82FF0E0E759FF4F99E090838F5FE82FA9
:10015000F0E0E759FF4F90E990838F5FE82FF0E0E0
:10016000E759FF4F20838F5FE82FF0E0E759FF4FFB
:100170009FE790838F5F809364000895282F80917C
:1001800065008F5F8093650081508230F8F4809124
:100190006400E82FF0E0E759FF4F98E090838F5F0D
:1001A000E82FF0E0E759FF4F90E890838F5FE82F4A
:1001B000F0E0E759FF4F20838F5FE82FF0E0E75929
:1001C000FF4F9FE790838F5F80936400089586B30D
:1001D00080958370089514BC85B5876085BD0895AA
:1001E00085B5887F85BD089585B590E08770873097
:1001F00009F491E0892F089588B7807808951F92B7
:100200000F920FB60F9211248F9381E080936600B6
:1002100085B5887F85BD8F910F900FBE0F901F9081
:1002200018951F920F920FB60F9211248F93809101
:100230006000882321F085B18093730003C085B1ED
:100240008093740081E0809367008F910F900FBEC0
:100250000F901F901895A0E0B0E0E0E3F1E00FC32D
:1002600080B78B7F80BF84E087BB83E088BB11BAF7
:1002700083EF82BB14BA9FEF95BB88E085BD8AEE01
:1002800083BD89B7806889BF80E287B996B95CD0A1
:100290008B9A8B987894C29A00E010E062D080919B
:1002A000800084FFFBCF109264001092650085B53A
:1002B0008770873049F006B300950370011721F06D
:1002C00014BC85B5876085BD80916600882369F17F
:1002D00086B380958370801731F5B12EB026C0E0CB
:1002E000D0E010E6CB2CDD24E02EFF24C6010C2E3E
:1002F00002C0959587950A94E2F780FF0EC0C7016A
:100300000C2E02C0959587950A94E2F780FF03C0F2
:10031000812F0BDF02C0812F31DF21961F5F123644
:1003200029F7102F0B2D109266008091650088230D
:1003300009F4B4CF8091800084FFB0CF89E690E0CB
:10034000609164001AD1AACF85B7826085BF8BB750
:1003500080648BBF8BE4809381008AE5809380006A
:1003600008951F93CF93DF9390919100935097FD41
:10037000A6C020918E0080918D008D3209F09DC025
:10038000983009F09AC0CCE0D0E0C21BD109CB561E
:10039000DF4F83EC809375008AE5809361001092B3
:1003A00068009881892F807621F0CE01BCDE282F4D
:1003B0007BC02A813C8110927E008981882381F450
:1003C0009F71923049F4313839F4809180008E3138
:1003D00019F481E080937E0010927F0022E05EC0DD
:1003E000813011F0833089F4222309F056C031386E
:1003F00009F053C0813011F08EE101C08AE580938D
:1004000080008BE48093810048C0853019F42093EC
:10041000920043C0863051F58B81813011F08230DB
:1004200021F4CE016CDE282F1DC08330D1F48A81E7
:10043000882341F48DE990E09093900080938F00A1
:1004400024E010C0813019F481EA90E004C08230C9
:1004500041F483EB90E09093900080938F0022E131
:1004600001C020E080E4809368001EC0883021F441
:1004700021E084E990E014C0893019F420939400BD
:1004800009C08A3011F421E009C08B3031F48BE4CB
:10049000809381008AE58093800020E08EE790E0E1
:1004A0009093900080938F008F81882321F48E8118
:1004B000821708F4282F20936200109291008091F7
:1004C000610084FF49C0809162008F3F09F444C0FD
:1004D000182F893008F018E0811B8093620080910A
:1004E000750098E8892780937500112341F12091C8
:1004F0008F00309190008091680086FF0DC0A6E7C4
:10050000B0E080E090E0F901E80FF91FE491ED938D
:1005100001961817C1F708C0912FD901E6E7F0E05E
:100520008D9181939150E1F71150812F90E01F5FE1
:100530000196820F931F9093900080938F0086E71F
:1005400090E0612F55D0612F6C5F6C3019F08FEF08
:10055000809362006093610094E180B38C7049F4F1
:100560009150D9F71092920010928C008AE58093F6
:100570008000DF91CF911F9108951F93DC01162F0A
:10058000809180008E31E9F08091800084FF07C067
:100590008091810098E889278093810003C08AE5D3
:1005A00080938000912FE2E8F0E08D91819391504B
:1005B0001916DCF382E890E0612F1AD01C5F1093CB
:1005C00080001F910895A82FB92F80E090E041E0AE
:1005D00050EA609530E009C02D9182279795879564
:1005E00010F084279527305EC8F36F5FA8F3089555
:1005F000EADF8D939D930895CF93CFB7CF93C395A3
:10060000839BE9F7839B09C0839B07C0839B05C03D
:10061000839B03C0839B01C0A3C0DF93C0918E0066
:10062000DD27CB56DF4F839B02C0DF91EBCF2F93AB
:100630000F931F9300B32FEF03FB20F94F933F93CA
:1006400010B34FEF012703FB21F93BE031C04E7F90
:10065000012F10B3216028C0102F4D7F22600000B1
:1006600000B329C04B7F2460012F000010B32BC0C2
:1006700010B3477F28602AC04F7E00B320612CC092
:100680004F7D10B320622FC04F7B00B3206432C077
:10069000422700B349934FEF0000102713FB20F9C6
:1006A00010B31C70C9F1297F91F2012703FB21F9D6
:1006B00000B3237F89F2315058F1102713FB22F940
:1006C00010B3277E79F2012703FB23F92F7C81F2F7
:1006D00000B3102713FB24F92F7971F200C010B377
:1006E000012703FB25F92F7359F200C000B310272F
:1006F00013FB26F9223040F200C010B3012703FBA0
:1007000027F9243028F64F77206810B30000F9CF7E
:1007100010E41ABF002719C03B503195C31BD040CD
:1007200010E41ABF0881033CF9F00B34E9F0209182
:100730008C001981110F1213EDCF4A81441F093625
:1007400041F10D3211F0013E29F7009393003F91E2
:100750004F911F910F912F91DF91CAB7C6FD4FCFD7
:10076000CF91CFBFCF91189520919300222379F399
:1007700010919100112369F534306AF130939100A2
:1007800020938D0010918E003BE0311B30938E0042
:1007900022C0009191000130E4F40AE54F7049F461
:1007A0003091610034FD19C000936100C5E7D0E0CD
:1007B00018C03091800034FD10C000938000C1E863
:1007C000D0E00FC02795A8F45150A9F4220F0000E3
:1007D000F9CF4AE503C042ED01C0432FC4E1D0E0A8
:1007E00032E011B31C60939A11BB02B320E41CE009
:1007F0005F93012756E002BB279520F4515021F466
:10080000220FF9CF012756E000003B5A02BBD0F27D
:10081000279528F4515029F4220F0000F9CF012721
:1008200056E0279502BB20F4515021F4220FF9CF56
:10083000012756E02991332302BB21F6037F109153
:100840009200110FC651D04002BB11F010938C00E2
:1008500010E41ABF086011B3137F402F437F5F91EC
:1008600000C000C002BB11BB42BB71CF2F923F92B0
:100870004F925F926F927F928F929F92AF92BF92B0
:10088000CF92DF92EF92FF920F931F93CF93DF935C
:10089000CDB7DEB7CA1BDB0B0FB6F894DEBF0FBEB9
:0808A000CDBF0994F894FFCFCD
:0408A800015AFF00F2
:00000001FF
