:1000000062C085C37BC027C179C078C077C076C085
:1000100075C074C073C072C071C070C02EC16EC094
:100020006DC06CC06BC01201100100000008C0164A
:10003000E40501000102000109026500020100005F
:100040003209040000000101000009240100010937
:10005000000101090401000201030000072401005E
:1000600001410006240201010006240202020009E7
:100070002403010301020100092403020401010118
:10008000000905010308000A000005250101010916
:1000900005810308000A0000052501010304030986
:1000A0000412036F0062006400650076002E006198
:1000B0000074001203540065006D0070006C006154
:1000C00000740065000011241FBECFE5D4E0DEBF40
:1000D000CDBF10E0A0E6B0E0EEEBF9E002C0059085
:1000E0000D92A236B107D9F710E0A2E6B0E001C048
:1000F0001D92A83AB107E1F7DAD05FC481CFFC01C5
:100100008381813041F486E290E090938D0080936A
:100110008C0082E1089588E390E090938D008093B5
:100120008C0085E608958FEF0895282F8091630055
:100130008F5F8093630081508230F8F48091620079
:10014000E82FF0E0E859FF4F99E090838F5FE82FA8
:10015000F0E0E859FF4F90E990838F5FE82FF0E0DF
:10016000E859FF4F20838F5FE82FF0E0E859FF4FF9
:100170009FE790838F5F809362000895282F80917E
:1001800063008F5F8093630081508230F8F4809128
:100190006200E82FF0E0E859FF4F98E090838F5F0E
:1001A000E82FF0E0E859FF4F90E890838F5FE82F49
:1001B000F0E0E859FF4F20838F5FE82FF0E0E85927
:1001C000FF4F9FE790838F5F809362000895282FF1
:1001D000809163008F5F809363008150823010F5BF
:1001E00090916200E92FF0E0E859FF4F8BE08083A7
:1001F0009F5FE92FF0E0E859FF4F80EB80839F5F1E
:10020000E92FF0E0E859FF4F809164008C5F808314
:100210009F5FE92FF0E0E859FF4F269520839F5F0D
:1002200090936200089586B380958370089514BCFE
:1002300085B5876085BD089585B5887F85BD08959E
:1002400085B590E08770873009F491E0892F089593
:1002500088B7807808951F920F920FB60F921124DD
:100260008F9381E08093650085B5887F85BD8F91F0
:100270000F900FBE0F901F9018951F920F920FB600
:100280000F9211248F9380916400882321F085B10F
:100290008093700003C085B18093710081E08093EA
:1002A00066008F910F900FBE0F901F901895A4E0DD
:1002B000B0E0ECE5F1E067C31A82198280B78B7F6A
:1002C00080BF84E087BB83E088BB11BA83EF82BB29
:1002D00014BA9FEF95BB88E085BD8AEE83BD89B7D0
:1002E000806889BF80E287B996B9B9D08B9A8B981C
:1002F0007894C29A80916600882309F0AFC0F89480
:1003000089811C821B828B83789410926600EE2474
:1003100010E0992493E0492E512C4C0E5D1E3E01B5
:100320000894611C711CA8D080917D0084FFFBCFD4
:10033000109262001092630085B58770873051F08B
:10034000E6B2E09483E0E822E11621F014BC85B522
:10035000876085BD80916500882381F186B3809593
:1003600083708E1549F5812E8E2400E010E080E622
:10037000F82EA82CBB24CE2CDD24C501002E02C0F3
:10038000959587950A94E2F780FF0EC0C601002E6E
:1003900002C0959587950A94E2F780FF03C08F2DE0
:1003A000C4DE02C08F2DEADE0F5F1F4FF39482E69A
:1003B000F81619F71E2DE82C109265008091660042
:1003C000882309F43CC010926600939483E0891559
:1003D000B0F5F894E0916400F0E0DF01A059BF4F60
:1003E0006C91D201AE0FBF1F6C937894462F50E0F2
:1003F000E60DF71D8081282F30E0CA01821B930B88
:1004000002972CF4241B350B2230310564F0862F23
:10041000DEDEE0916400F0E0D301AE0FBF1FE40D1B
:10042000F51D80818C93809164008F5F80936400C0
:10043000389A823018F0109264003898992480918C
:100440006300882309F46FCF80917D0084FF6BCF18
:1004500088E690E0609162001BD165CFFFCF85B741
:10046000826085BF8BB780648BBF8BE480937E00F6
:100470008AE580937D0008951F93CF93DF93909139
:100480008E00935097FDA6C020918B0080918A002A
:100490008D3209F09DC0983009F09AC0CCE0D0E0D0
:1004A000C21BD109CE56DF4F83EC809372008AE5E0
:1004B00080936000109267009881892F807621F0E8
:1004C000CE0131DE282F7BC02A813C8110927B0037
:1004D0008981882381F49F71923049F4313839F44D
:1004E00080917D008E3119F481E080937B00109221
:1004F0007C0022E05EC0813011F0833089F4222339
:1005000009F056C0313809F053C0813011F08EE146
:1005100001C08AE580937D008BE480937E0048C013
:10052000853019F420938F0043C0863051F58B81BC
:10053000813011F0823021F4CE01E1DD282F1DC081
:100540008330D1F48A81882341F48DE990E090933F
:100550008D0080938C0024E010C0813019F481EA72
:1005600090E004C0823041F483EB90E090938D00E2
:1005700080938C0022E101C020E080E4809367003A
:100580001EC0883021F421E081E990E014C0893058
:1005900019F42093910009C08A3011F421E009C0B8
:1005A0008B3031F48BE480937E008AE580937D006C
:1005B00020E08BE790E090938D0080938C008F81FA
:1005C000882321F48E81821708F4282F209361005C
:1005D00010928E008091600084FF49C0809161007C
:1005E0008F3F09F444C0182F893008F018E0811BB0
:1005F000809361008091720098E88927809372004F
:10060000112341F120918C0030918D008091670081
:1006100086FF0DC0A3E7B0E080E090E0F901E80FAD
:10062000F91FE491ED9301961817C1F708C0912FB7
:10063000D901E3E7F0E08D9181939150E1F71150FA
:10064000812F90E01F5F0196820F931F90938D0082
:1006500080938C0083E790E0612F55D0612F6C5F11
:100660006C3019F08FEF809361006093600094E12B
:1006700080B38C7049F49150D9F710928F0010928A
:1006800089008AE580937D00DF91CF911F910895C5
:100690001F93DC01162F80917D008E31E9F080914F
:1006A0007D0084FF07C080917E0098E889278093B1
:1006B0007E0003C08AE580937D00912FEFE7F0E094
:1006C0008D91819391501916DCF38FE790E0612FA3
:1006D0001AD01C5F10937D001F910895A82FB92F89
:1006E00080E090E041E050EA609530E009C02D9153
:1006F00082279795879510F084279527305EC8F359
:100700006F5FA8F30895EADF8D939D930895CF93CB
:10071000CFB7CF93C395839BE9F7839B09C0839B96
:1007200007C0839B05C0839B03C0839B01C0A3C0FC
:10073000DF93C0918B00DD27CE56DF4F839B02C035
:10074000DF91EBCF2F930F931F9300B32FEF03FB9A
:1007500020F94F933F9310B34FEF012703FB21F98B
:100760003BE031C04E7F012F10B3216028C0102F15
:100770004D7F2260000000B329C04B7F2460012F11
:10078000000010B32BC010B3477F28602AC04F7EF3
:1007900000B320612CC04F7D10B320622FC04F7B6F
:1007A00000B3206432C0422700B349934FEF0000EA
:1007B000102713FB20F910B31C70C9F1297F91F2A7
:1007C000012703FB21F900B3237F89F2315058F14F
:1007D000102713FB22F910B3277E79F2012703FBC0
:1007E00023F92F7C81F200B3102713FB24F92F7912
:1007F00071F200C010B3012703FB25F92F7359F2E2
:1008000000C000B3102713FB26F9223040F200C0CD
:1008100010B3012703FB27F9243028F64F7720680F
:1008200010B30000F9CF10E41ABF002719C03B50E5
:100830003195C31BD04010E41ABF0881033CF9F086
:100840000B34E9F0209189001981110F1213EDCFBB
:100850004A81441F093641F10D3211F0013E29F75A
:10086000009390003F914F911F910F912F91DF9135
:10087000CAB7C6FD4FCFCF91CFBFCF91189520916A
:100880009000222379F310918E00112369F5343002
:100890006AF130938E0020938A0010918B003BE028
:1008A000311B30938B0022C000918E000130E4F4A4
:1008B0000AE54F7049F43091600034FD19C000938F
:1008C0006000C2E7D0E018C030917D0034FD10C058
:1008D00000937D00CEE7D0E00FC02795A8F45150DB
:1008E000A9F4220F0000F9CF4AE503C042ED01C090
:1008F000432FC4E1D0E032E011B31C60939A11BBE6
:1009000002B320E41CE05F93012756E002BB279569
:1009100020F4515021F4220FF9CF012756E00000B6
:100920003B5A02BBD0F2279528F4515029F4220FEC
:100930000000F9CF012756E0279502BB20F4515063
:1009400021F4220FF9CF012756E02991332302BB6E
:1009500021F6037F10918F00110FC651D04002BBCA
:1009600011F01093890010E41ABF086011B3137FCF
:10097000402F437F5F9100C000C002BB11BB42BB50
:1009800071CF2F923F924F925F926F927F928F9290
:100990009F92AF92BF92CF92DF92EF92FF920F930E
:1009A0001F93CF93DF93CDB7DEB7CA1BDB0B0FB618
:0E09B000F894DEBF0FBECDBF0994F894FFCFC0
:0209BE005AFFDE
:00000001FF
