:1000000062C07AC27BC07AC079C078C077C076C03F
:1000100075C074C073C072C071C070C06FC06EC054
:100020006DC06CC06BC01201100100000008C0164A
:10003000E40501000102000109026500020100005F
:100040003209040000000101000009240100010937
:10005000000101090401000201030000072401005E
:1000600001410006240201010006240202020009E7
:100070002403010301020100092403020401010118
:10008000000905010308000A000005250101010916
:1000900005810308000A0000052501010304030986
:1000A0000412036F0062006400650076002E006198
:1000B0000074001203540065006D0070006C006154
:1000C00000740065000011241FBECFE5D4E0DEBF40
:1000D000CDBF10E0A0E6B0E0E0E7F7E002C0059099
:1000E0000D92A236B107D9F710E0A2E6B0E001C048
:1000F0001D92A33AB107E1F76AD038C381CFFC0162
:100100008381813041F486E290E09093880080936F
:10011000870082E1089588E390E0909388008093BF
:10012000870085E608958FEF0895282F809163005A
:100130008F5F8093630081508230F8F48091620079
:10014000E82FF0E0EB59FF4F99E090838F5FE82FA5
:10015000F0E0EB59FF4F90E990838F5FE82FF0E0DC
:10016000EB59FF4F20838F5FE82FF0E0EB59FF4FF3
:100170009FE790838F5F809362000895282F80917E
:1001800063008F5F8093630081508230F8F4809128
:100190006200E82FF0E0EB59FF4F98E090838F5F0B
:1001A000E82FF0E0EB59FF4F90E890838F5FE82F46
:1001B000F0E0EB59FF4F20838F5FE82FF0E0EB5921
:1001C000FF4F9FE790838F5F8093620008950F93A6
:1001D0001F9380B78B7F80BF87B38C7F87BBBA9A12
:1001E00088B3836088BB30D08B9A8B98C29A7894FE
:1001F00000E037D08091780084FF04C01092620044
:100200001092630016B31370101781F0012F10FFC6
:1002100003C080E68ADF02C080E6B0DF01FF03C0D2
:1002200081E683DF02C081E6A9DF012F80916300B0
:100230008823F9F28091780084FFDBCF85E690E097
:10024000609162001AD1D5CF85B7826085BF8BB728
:1002500080648BBF8BE4809379008AE5809378007B
:1002600008951F93CF93DF9390918900935097FD4A
:10027000A6C020918600809185008D3209F09DC036
:10028000983009F09AC0CCE0D0E0C21BD109C35726
:10029000DF4F83EC80936D008AE5809360001092BD
:1002A00064009881892F807621F0CE013CDF282FD1
:1002B0007BC02A813C81109276008981882381F459
:1002C0009F71923049F4313839F4809178008E3141
:1002D00019F481E0809376001092770022E05EC0EE
:1002E000813011F0833089F4222309F056C031386F
:1002F00009F053C0813011F08EE101C08AE580938E
:1003000078008BE48093790048C0853019F42093FD
:100310008A0043C0863051F58B81813011F08230E4
:1003200021F4CE01ECDE282F1DC08330D1F48A8168
:10033000882341F48DE990E09093880080938700B2
:1003400024E010C0813019F481EA90E004C08230CA
:1003500041F483EB90E0909388008093870022E142
:1003600001C020E080E4809364001EC0883021F446
:1003700021E08CE890E014C0893019F420938C00BF
:1003800009C08A3011F421E009C08B3031F48BE4CC
:10039000809379008AE58093780020E086E790E0FA
:1003A00090938800809387008F81882321F48E8129
:1003B000821708F4282F2093610010928900809101
:1003C000600084FF49C0809161008F3F09F444C000
:1003D000182F893008F018E0811B8093610080910C
:1003E0006D0098E8892780936D00112341F12091D9
:1003F0008700309188008091640086FF0DC0AEE6D2
:10040000B0E080E090E0F901E80FF91FE491ED938E
:1004100001961817C1F708C0912FD901EEE6F0E058
:100420008D9181939150E1F71150812F90E01F5FE2
:100430000196820F931F90938800809387008EE629
:1004400090E0612F55D0612F6C5F6C3019F08FEF09
:10045000809361006093600094E180B38C7049F4F4
:100460009150D9F710928A00109284008AE5809307
:100470007800DF91CF911F9108951F93DC01162F13
:10048000809178008E31E9F08091780084FF07C078
:100490008091790098E889278093790003C08AE5E4
:1004A00080937800912FEAE7F0E08D91819391504D
:1004B0001916DCF38AE790E0612F1AD01C5F1093C5
:1004C00078001F910895A82FB92F80E090E041E0B7
:1004D00050EA609530E009C02D9182279795879565
:1004E00010F084279527305EC8F36F5FA8F3089556
:1004F000EADF8D939D930895CF93CFB7CF93C395A4
:10050000839BE9F7839B09C0839B07C0839B05C03E
:10051000839B03C0839B01C0A3C0DF93C09186006F
:10052000DD27C357DF4F839B02C0DF91EBCF2F93B3
:100530000F931F9300B32FEF03FB20F94F933F93CB
:1005400010B34FEF012703FB21F93BE031C04E7F91
:10055000012F10B3216028C0102F4D7F22600000B2
:1005600000B329C04B7F2460012F000010B32BC0C3
:1005700010B3477F28602AC04F7E00B320612CC093
:100580004F7D10B320622FC04F7B00B3206432C078
:10059000422700B349934FEF0000102713FB20F9C7
:1005A00010B31C70C9F1297F91F2012703FB21F9D7
:1005B00000B3237F89F2315058F1102713FB22F941
:1005C00010B3277E79F2012703FB23F92F7C81F2F8
:1005D00000B3102713FB24F92F7971F200C010B378
:1005E000012703FB25F92F7359F200C000B3102730
:1005F00013FB26F9223040F200C010B3012703FBA1
:1006000027F9243028F64F77206810B30000F9CF7F
:1006100010E41ABF002719C03B503195C31BD040CE
:1006200010E41ABF0881033CF9F00B34E9F0209183
:1006300084001981110F1213EDCF4A81441F09362E
:1006400041F10D3211F0013E29F700938B003F91EB
:100650004F911F910F912F91DF91CAB7C6FD4FCFD8
:10066000CF91CFBFCF91189520918B00222379F3A2
:1006700010918900112369F534306AF130938900B3
:1006800020938500109186003BE0311B309386005B
:1006900022C0009189000130E4F40AE54F7049F46A
:1006A0003091600034FD19C000936000CDE6D0E0C9
:1006B00018C03091780034FD10C000937800C9E76D
:1006C000D0E00FC02795A8F45150A9F4220F0000E4
:1006D000F9CF4AE503C042ED01C0432FC4E1D0E0A9
:1006E00032E011B31C60939A11BB02B320E41CE00A
:1006F0005F93012756E002BB279520F4515021F467
:10070000220FF9CF012756E000003B5A02BBD0F27E
:10071000279528F4515029F4220F0000F9CF012722
:1007200056E0279502BB20F4515021F4220FF9CF57
:10073000012756E02991332302BB21F6037F109154
:100740008A00110FC651D04002BB11F010938400F3
:1007500010E41ABF086011B3137F402F437F5F91ED
:1007600000C000C002BB11BB42BB71CFF894FFCFE9
:020770005AFF2E
:00000001FF
